:100000001DC037C036C035C034C046C132C031C053
:1000100030C02FC02EC02DC089C12BC02AC0000007
:100020000000370000000000380002020202020255
:1000300001020408102001020000040011241FBE68
:10004000CFE5D2E0DEBFCDBF10E0A0E6B0E0E8E54E
:10005000F4E002C005900D92A436B107D9F720E074
:10006000A4E6B0E001C01D92AD36B207E1F76DD154
:10007000F1C1C6CFE7E3F0E09491E1E3F0E0249131
:10008000EBE2F0E0E491EE2381F19923B1F09130BD
:1000900019F49AB59F7704C0923021F49AB59F7DE8
:1000A0009ABD0BC0933021F490B79F7D90BF05C0DF
:1000B000943019F49CB59F7D9CBDF0E0EE0FFF1FBE
:1000C000EC5DFF4FA591B491811109C09FB7F894E1
:1000D0008C91E22FE095E823EC939FBF08958FB7B2
:1000E000F894EC91E22BEC938FBF0895CF93DF93BC
:1000F00087FF11C08F7741F0813041F0823041F0AD
:10010000833041F08FEF07C085E005C082E003C077
:1001100084E001C083E090E0FC01E05DFF4F2491AA
:10012000FC01E65DFF4F8491882361F190E0880F28
:10013000991FFC01E25EFF4FC591D491FC01EC5D7B
:10014000FF4FA591B491611109C09FB7F8948881C0
:10015000209582238883EC912E230BC0623061F4BA
:100160009FB7F8948881322F309583238883EC9150
:100170002E2B2C939FBF06C08FB7F894E8812E2BAF
:1001800028838FBFDF91CF910895CF93DF93EC0148
:1001900061E081E0ABDF1C161D0614F080E004C0B6
:1001A000CF3FD10524F081E0DF91CF9163CFE7E32A
:1001B000F0E0E491E13029F48AB580688ABDC9BDD8
:1001C00019C0E23029F48AB580628ABDC8BD12C068
:1001D000E33029F480B7806280BFCEBD0BC0E4302D
:1001E00029F48CB580628CBDCBBD04C0C038D1056C
:1001F000D4F6D4CFDF91CF9108953FB7F894809192
:10020000690090916A00A0916B00B0916C0022B7D8
:1002100008B601FE05C02F3F19F00196A11DB11DC2
:100220003FBFBA2FA92F982F8827820F911DA11D9C
:10023000B11DBC01CD0143E0660F771F881F991FD8
:100240004A95D1F70895CF92DF92EF92FF92CF9324
:10025000DF936B017C01D1DFEB01C114D104E10418
:10026000F10499F0CADF6C1B7D0B683E7340A8F364
:10027000C114D104E104F10481F381E0C81AD1086A
:10028000E108F108C851DC4FEDCFDF91CF91FF902D
:10029000EF90DF90CF9008951F920F920FB60F92BC
:1002A00011242F933F938F939F93AF93BF9380918C
:1002B000650090916600A0916700B0916800309150
:1002C000640026E0230F2D3730F029E8230F039632
:1002D000A11DB11D03C00296A11DB11D2093640094
:1002E0008093650090936600A0936700B0936800C8
:1002F0008091690090916A00A0916B00B0916C00B0
:100300000196A11DB11D8093690090936A00A0938E
:100310006B00B0936C00BF91AF919F918F913F9113
:100320002F910F900FBE0F901F9018951F920F9254
:100330000FB60F9211248F9381E0809362008F910A
:100340000F900FBE0F901F90189581B781BF8AB58F
:1003500082608ABD8AB581608ABD83B7887F8260EA
:1003600083BF789489B7826089BF80B7807F80BF60
:1003700080B7806880BF80B7806480BF8CB58064A0
:100380008CBD8FEF8DBD80B7846080BF86B18877CC
:10039000836886B9379A60E083E0A8DE61E081E097
:1003A000A5DE84B7877F84BF81B5886181BD81E385
:1003B00081BD81B5806481BD13E080916200813090
:1003C000E1F71092620080916000909161000B97BC
:1003D00054F48091600090916100019690936100C7
:1003E00080936000EACF109261001092600017B90C
:1003F00087B187B9369A3699FECF84B125B190E09E
:10040000922B8A3F9105CCF661E081E06FDEC0E07F
:10041000D0E0CE01BADE62E370E080E090E013DF6E
:100420002896C038D105A9F760E27EE480E090E02C
:100430000ADFC0E8D0E0CE01A8DE62E370E080E031
:1004400090E001DF2897B9F780E014DE60E081E0FA
:080450004DDEB3CFF894FFCF9D
:040458000B00010094
:00000001FF
